:100000000C9432000C9444000C94ED020C944400C7
:100010000C9444000C9444000C9444000C94440050
:100020000C9444000C9444000C9400030C94440081
:100030000C9444000C9444000C9444000C94440030
:100040000C9444000C9444000C9444000C94440020
:100050000C944400CD01CF01D401D601DE01E001B2
:10006000E501E70111241FBECFE5D4E0DEBFCDBF1F
:1000700020E0A0E6B0E001C01D92A736B207E1F78C
:100080000E9431030C943E030C940000843008F06D
:1000900049C0683008F046C0423008F043C08230A2
:1000A00011F1833079F1813079F02AB381E090E069
:1000B00001C0880F6A95EAF7413011F4822B02C023
:1000C000809582238ABB2CC027B381E090E001C0D9
:1000D000880F6A95EAF7413011F4822B02C08095AF
:1000E000822387BB1DC024B381E090E001C0880F4C
:1000F0006A95EAF7413011F4822B02C08095822381
:1001000084BB0EC021B381E090E001C0880F6A95E6
:10011000EAF7413011F4822B02C08095822381BB23
:1001200081E0089580E00895843008F049C0683087
:1001300008F046C0423008F043C0823011F18330ED
:1001400079F1813079F02BB381E090E001C0880F24
:100150006A95EAF7413011F4822B02C08095822320
:100160008BBB2CC028B381E090E001C0880F6A955A
:10017000EAF7413011F4822B02C08095822388BBBC
:100180001DC025B381E090E001C0880F6A95EAF7B1
:10019000413011F4822B02C08095822385BB0EC0B2
:1001A00022B381E090E001C0880F6A95EAF7413000
:1001B00011F4822B02C08095822382BB81E00895D6
:1001C00080E00895813049F030F0823041F0833092
:1001D00079F420B305C029B303C026B301C023B30B
:1001E00081E090E001C0880F6A95EAF782230895C4
:1001F00080E00895813049F028F0823049F0833062
:1002000051F0089540E067E008C040E066E005C0B6
:1002100040E065E002C040E063E083E00C9446000B
:1002200080E00895873048F58330A9F028F48130C4
:1002300061F0823069F005C08530A1F080F0863031
:10024000A1F041E067E081E013C041E064E005C057
:1002500041E065E002C041E066E080E009C041E0C5
:1002600067E0FBCF41E066E002C041E067E082E08A
:100270000E94460081E090E0089580E090E00895BB
:10028000873048F58330A9F028F4813061F082305E
:1002900069F005C08530A1F080F08630A1F041E022
:1002A00067E081E013C041E064E005C041E065E043
:1002B00002C041E066E080E009C041E067E0FBCFBA
:1002C00041E066E002C041E067E082E00E94940005
:1002D00081E090E0089580E090E00895873048F54F
:1002E0008330A9F028F4813061F0823069F005C0D4
:1002F0008530A1F080F08630A1F040E067E081E039
:1003000013C040E064E005C040E065E002C040E0AA
:1003100066E080E009C040E067E0FBCF40E066E0D7
:1003200002C040E067E082E00E94940081E090E03B
:10033000089580E090E00895813049F028F08230FF
:1003400049F0833069F0089583B7877F05C083B78C
:10035000877F08C083B7886083BF83B78F7B05C062
:1003600083B7886083BF83B7806483BF089582BFEB
:10037000089512BE089508B600FEFDCF089588B70F
:100380008E7F88BF089590E08830910540F5FC018C
:10039000E65DFF4F83B70C9438038E7F01C0816008
:1003A00083BF83B78D7F06C08E7F01C0816083BF0E
:1003B00083B7826083BF83B78B7F10C08E7F01C0FD
:1003C000816083BF83B78D7F06C08E7F01C081604F
:1003D00083BF83B7826083BF83B7846083BF089580
:1003E00080E00E94120183E00E94120181E00E94DD
:1003F000120185E00E94120184E00E94120186E051
:100400000E94120182E080936100109262001092BB
:10041000630010926400109265001092660081E003
:100420008093600083E00E94FA0085B7886085BFF2
:100430008BB780688BBF82E00E949C018AEF8CBFE3
:1004400089B7826089BF83E00E94C30178940895D0
:1004500080E00E946E0185E00E946E0183E00E94B0
:10046000400186E00E94400181E08093600083E0CB
:100470008093610080E197E2A0E0B0E080936200A9
:1004800090936300A0936400B0936500089583E0A7
:100490000E946E0186E00E946E0181E00E94400190
:1004A00084E00E94400182E08093610080E197E255
:1004B000A0E0B0E08093620090936300A09364009A
:1004C000B0936500089581E00E946E0184E00E946F
:1004D0006E0183E00E94400186E00E94400184E0BA
:1004E0008093610080E197E2A0E0B0E08093620039
:1004F00090936300A0936400B0936500089583E037
:100500000E946E0186E00E946E0180E00E94400120
:1005100085E00E9440011092600081E080936100BC
:1005200080E197E2A0E0B0E08093620090936300E6
:10053000A0936400B0936500089588EBC82E8BE00B
:10054000D82EE12CF12C8091620090916300A09153
:100550006400B0916500892B8A2B8B2BB1F48091BC
:100560006100823081F028F4813079F40E94280201
:100570000CC0833029F0843041F40E947F0205C012
:100580000E94470202C00E94630280916600882395
:10059000D1F2809160008823B1F281E00E946E0167
:1005A00080E00E946E0184E00E946E0185E00E945E
:1005B0006E0183E00E94400186E00E944001C092EB
:1005C0006200D0926300E0926400F092650084E0E3
:1005D0008093610010926600B6CF1F920F920FB603
:1005E0000F9211248F9380916600811103C081E0E6
:1005F000809366008F910F900FBE0F901F901895FB
:100600001F920F920FB60F9211248F939F93AF9367
:10061000BF938091620090916300A0916400B091BB
:100620006500892B8A2B8B2B99F080916200909129
:100630006300A0916400B09165000197A109B10920
:100640008093620090936300A0936400B093650070
:10065000BF91AF919F918F910F900FBE0F901F9000
:1006600018950E94F0010E949D0280E090E008959C
:10067000EE0FFF1F0590F491E02D0994F894FFCF41
:00000001FF
